{
  "contractName": "GeneralPermissionManager",
  "abi": [
    {
      "constant": true,
      "inputs": [
        {
          "name": "",
          "type": "address"
        },
        {
          "name": "",
          "type": "address"
        },
        {
          "name": "",
          "type": "bytes32"
        }
      ],
      "name": "perms",
      "outputs": [
        {
          "name": "",
          "type": "bool"
        }
      ],
      "payable": false,
      "stateMutability": "view",
      "type": "function"
    },
    {
      "constant": false,
      "inputs": [
        {
          "name": "_amount",
          "type": "uint256"
        }
      ],
      "name": "takeFee",
      "outputs": [
        {
          "name": "",
          "type": "bool"
        }
      ],
      "payable": false,
      "stateMutability": "nonpayable",
      "type": "function"
    },
    {
      "constant": true,
      "inputs": [],
      "name": "polyToken",
      "outputs": [
        {
          "name": "",
          "type": "address"
        }
      ],
      "payable": false,
      "stateMutability": "view",
      "type": "function"
    },
    {
      "constant": true,
      "inputs": [],
      "name": "CHANGE_PERMISSION",
      "outputs": [
        {
          "name": "",
          "type": "bytes32"
        }
      ],
      "payable": false,
      "stateMutability": "view",
      "type": "function"
    },
    {
      "constant": true,
      "inputs": [
        {
          "name": "",
          "type": "uint256"
        }
      ],
      "name": "allDelegates",
      "outputs": [
        {
          "name": "",
          "type": "address"
        }
      ],
      "payable": false,
      "stateMutability": "view",
      "type": "function"
    },
    {
      "constant": true,
      "inputs": [],
      "name": "securityToken",
      "outputs": [
        {
          "name": "",
          "type": "address"
        }
      ],
      "payable": false,
      "stateMutability": "view",
      "type": "function"
    },
    {
      "constant": true,
      "inputs": [],
      "name": "factory",
      "outputs": [
        {
          "name": "",
          "type": "address"
        }
      ],
      "payable": false,
      "stateMutability": "view",
      "type": "function"
    },
    {
      "constant": true,
      "inputs": [],
      "name": "FEE_ADMIN",
      "outputs": [
        {
          "name": "",
          "type": "bytes32"
        }
      ],
      "payable": false,
      "stateMutability": "view",
      "type": "function"
    },
    {
      "constant": true,
      "inputs": [
        {
          "name": "",
          "type": "address"
        }
      ],
      "name": "delegateDetails",
      "outputs": [
        {
          "name": "",
          "type": "bytes32"
        }
      ],
      "payable": false,
      "stateMutability": "view",
      "type": "function"
    },
    {
      "inputs": [
        {
          "name": "_securityToken",
          "type": "address"
        },
        {
          "name": "_polyAddress",
          "type": "address"
        }
      ],
      "payable": false,
      "stateMutability": "nonpayable",
      "type": "constructor"
    },
    {
      "anonymous": false,
      "inputs": [
        {
          "indexed": true,
          "name": "_delegate",
          "type": "address"
        },
        {
          "indexed": false,
          "name": "_module",
          "type": "address"
        },
        {
          "indexed": false,
          "name": "_perm",
          "type": "bytes32"
        },
        {
          "indexed": false,
          "name": "_valid",
          "type": "bool"
        },
        {
          "indexed": false,
          "name": "_timestamp",
          "type": "uint256"
        }
      ],
      "name": "ChangePermission",
      "type": "event"
    },
    {
      "anonymous": false,
      "inputs": [
        {
          "indexed": true,
          "name": "_delegate",
          "type": "address"
        },
        {
          "indexed": false,
          "name": "_details",
          "type": "bytes32"
        },
        {
          "indexed": false,
          "name": "_timestamp",
          "type": "uint256"
        }
      ],
      "name": "AddDelegate",
      "type": "event"
    },
    {
      "constant": true,
      "inputs": [],
      "name": "getInitFunction",
      "outputs": [
        {
          "name": "",
          "type": "bytes4"
        }
      ],
      "payable": false,
      "stateMutability": "pure",
      "type": "function"
    },
    {
      "constant": true,
      "inputs": [
        {
          "name": "_delegate",
          "type": "address"
        },
        {
          "name": "_module",
          "type": "address"
        },
        {
          "name": "_perm",
          "type": "bytes32"
        }
      ],
      "name": "checkPermission",
      "outputs": [
        {
          "name": "",
          "type": "bool"
        }
      ],
      "payable": false,
      "stateMutability": "view",
      "type": "function"
    },
    {
      "constant": false,
      "inputs": [
        {
          "name": "_delegate",
          "type": "address"
        },
        {
          "name": "_details",
          "type": "bytes32"
        }
      ],
      "name": "addDelegate",
      "outputs": [],
      "payable": false,
      "stateMutability": "nonpayable",
      "type": "function"
    },
    {
      "constant": true,
      "inputs": [
        {
          "name": "_potentialDelegate",
          "type": "address"
        }
      ],
      "name": "checkDelegate",
      "outputs": [
        {
          "name": "",
          "type": "bool"
        }
      ],
      "payable": false,
      "stateMutability": "view",
      "type": "function"
    },
    {
      "constant": false,
      "inputs": [
        {
          "name": "_delegate",
          "type": "address"
        },
        {
          "name": "_module",
          "type": "address"
        },
        {
          "name": "_perm",
          "type": "bytes32"
        },
        {
          "name": "_valid",
          "type": "bool"
        }
      ],
      "name": "changePermission",
      "outputs": [],
      "payable": false,
      "stateMutability": "nonpayable",
      "type": "function"
    },
    {
      "constant": false,
      "inputs": [
        {
          "name": "_delegate",
          "type": "address"
        },
        {
          "name": "_modules",
          "type": "address[]"
        },
        {
          "name": "_perms",
          "type": "bytes32[]"
        },
        {
          "name": "_valids",
          "type": "bool[]"
        }
      ],
      "name": "changePermissionMulti",
      "outputs": [],
      "payable": false,
      "stateMutability": "nonpayable",
      "type": "function"
    },
    {
      "constant": true,
      "inputs": [
        {
          "name": "_module",
          "type": "address"
        },
        {
          "name": "_perm",
          "type": "bytes32"
        }
      ],
      "name": "getAllDelegatesWithPerm",
      "outputs": [
        {
          "name": "",
          "type": "address[]"
        }
      ],
      "payable": false,
      "stateMutability": "view",
      "type": "function"
    },
    {
      "constant": true,
      "inputs": [
        {
          "name": "_delegate",
          "type": "address"
        },
        {
          "name": "_types",
          "type": "uint8[]"
        },
        {
          "name": "_tokenAddress",
          "type": "address"
        }
      ],
      "name": "getAllModulesAndPermsFromTypes",
      "outputs": [
        {
          "name": "",
          "type": "address[]"
        },
        {
          "name": "",
          "type": "bytes32[]"
        }
      ],
      "payable": false,
      "stateMutability": "view",
      "type": "function"
    },
    {
      "constant": true,
      "inputs": [],
      "name": "getAllDelegates",
      "outputs": [
        {
          "name": "",
          "type": "address[]"
        }
      ],
      "payable": false,
      "stateMutability": "view",
      "type": "function"
    },
    {
      "constant": true,
      "inputs": [],
      "name": "getPermissions",
      "outputs": [
        {
          "name": "",
          "type": "bytes32[]"
        }
      ],
      "payable": false,
      "stateMutability": "view",
      "type": "function"
    }
  ],
  "bytecode": "0x608060405234801561001057600080fd5b50604051604080611b0d83398101604052805160209091015160018054600160a060020a03938416600160a060020a0319918216179091556000805482163317905560028054939092169216919091179055611a9c806100716000396000f3006080604052600436106100ed5763ffffffff60e060020a6000350416631613ec9d81146100f25780632ec0508d1461013c5780634e0a4792146101835780635f7619a4146101c157806362c90dc5146101d95780636faa22a5146101fa5780637922c08a1461022b5780637a4f3764146102525780638658b8b9146102b7578063885a4860146102e1578063947dd6e5146103055780639cdae4ee1461031d578063b84dfbd214610341578063c3a07df614610356578063c45a01551461036b578063d080247814610380578063d70afa961461044c578063dec7542f14610461578063e380d34314610490575b600080fd5b3480156100fe57600080fd5b506101076104b1565b604080517fffffffff000000000000000000000000000000000000000000000000000000009092168252519081900360200190f35b34801561014857600080fd5b5061018160048035600160a060020a031690602480358082019290810135916044358082019290810135916064359081019101356104b6565b005b34801561018f57600080fd5b506101ad600160a060020a03600435811690602435166044356107d5565b604080519115158252519081900360200190f35b3480156101cd57600080fd5b506101ad6004356107fb565b3480156101e557600080fd5b506101ad600160a060020a0360043516610b17565b34801561020657600080fd5b5061020f610b5d565b60408051600160a060020a039092168252519081900360200190f35b34801561023757600080fd5b50610240610b6c565b60408051918252519081900360200190f35b34801561025e57600080fd5b50610267610b7e565b60408051602080825283518183015283519192839290830191858101910280838360005b838110156102a357818101518382015260200161028b565b505050509050019250505060405180910390f35b3480156102c357600080fd5b506101ad600160a060020a0360043581169060243516604435610be0565b3480156102ed57600080fd5b50610267600160a060020a0360043516602435610c40565b34801561031157600080fd5b5061020f600435610dda565b34801561032957600080fd5b50610181600160a060020a0360043516602435610e02565b34801561034d57600080fd5b5061020f61108b565b34801561036257600080fd5b5061026761109a565b34801561037757600080fd5b5061020f6110ec565b34801561038c57600080fd5b506103b3600160a060020a03600480358216916024803590810192013590604435166110fb565b604051808060200180602001838103835285818151815260200191508051906020019060200280838360005b838110156103f75781810151838201526020016103df565b50505050905001838103825284818151815260200191508051906020019060200280838360005b8381101561043657818101518382015260200161041e565b5050505090500194505050505060405180910390f35b34801561045857600080fd5b5061024061177b565b34801561046d57600080fd5b50610181600160a060020a0360043581169060243516604435606435151561179f565b34801561049c57600080fd5b50610240600160a060020a0360043516611a1e565b600090565b6000600080516020611a31833981519152600080600160009054906101000a9004600160a060020a0316600160a060020a0316638da5cb5b6040518163ffffffff1660e060020a028152600401602060405180830381600087803b15801561051d57600080fd5b505af1158015610531573d6000803e3d6000fd5b505050506040513d602081101561054757600080fd5b505160005433600160a060020a03928316811494509116149050818061056a5750805b806105fa57506001546040805160e060020a638658b8b9028152336004820152306024820152604481018690529051600160a060020a0390921691638658b8b9916064808201926020929091908290030181600087803b1580156105cd57600080fd5b505af11580156105e1573d6000803e3d6000fd5b505050506040513d60208110156105f757600080fd5b50515b151561063e576040805160e560020a62461bcd0281526020600482015260176024820152600080516020611a51833981519152604482015290519081900360640190fd5b60008911801561064e5750600087115b15156106a4576040805160e560020a62461bcd02815260206004820152601760248201527f30206c656e677468206973206e6f7420616c6c6f776564000000000000000000604482015290519081900360640190fd5b8887146106fb576040805160e560020a62461bcd02815260206004820152601560248201527f4172726179206c656e677468206d69736d617463680000000000000000000000604482015290519081900360640190fd5b848714610752576040805160e560020a62461bcd02815260206004820152601560248201527f4172726179206c656e677468206d69736d617463680000000000000000000000604482015290519081900360640190fd5b600093505b60ff84168711156107c8576107bd8b8b8b60ff881681811061077557fe5b90506020020135600160a060020a03168a8a8860ff16818110151561079657fe5b60200291909101359050898960ff8a168181106107af57fe5b90506020020135151561179f565b600190930192610757565b5050505050505050505050565b600360209081526000938452604080852082529284528284209052825290205460ff1681565b60007f4645455f41444d494e0000000000000000000000000000000000000000000000600080600160009054906101000a9004600160a060020a0316600160a060020a0316638da5cb5b6040518163ffffffff1660e060020a028152600401602060405180830381600087803b15801561087457600080fd5b505af1158015610888573d6000803e3d6000fd5b505050506040513d602081101561089e57600080fd5b505160005433600160a060020a0392831681149450911614905081806108c15750805b8061095157506001546040805160e060020a638658b8b9028152336004820152306024820152604481018690529051600160a060020a0390921691638658b8b9916064808201926020929091908290030181600087803b15801561092457600080fd5b505af1158015610938573d6000803e3d6000fd5b505050506040513d602081101561094e57600080fd5b50515b1515610995576040805160e560020a62461bcd0281526020600482015260176024820152600080516020611a51833981519152604482015290519081900360640190fd5b60025460015460008054604080517f8da5cb5b0000000000000000000000000000000000000000000000000000000081529051600160a060020a03958616956323b872dd95811694931692638da5cb5b92600480820193602093909283900390910190829087803b158015610a0957600080fd5b505af1158015610a1d573d6000803e3d6000fd5b505050506040513d6020811015610a3357600080fd5b50516040805160e060020a63ffffffff8616028152600160a060020a039384166004820152929091166024830152604482018990525160648083019260209291908290030181600087803b158015610a8a57600080fd5b505af1158015610a9e573d6000803e3d6000fd5b505050506040513d6020811015610ab457600080fd5b50511515610b0c576040805160e560020a62461bcd02815260206004820152601260248201527f556e61626c6520746f2074616b65206665650000000000000000000000000000604482015290519081900360640190fd5b506001949350505050565b6000600160a060020a0382161515610b2e57600080fd5b600160a060020a03821660009081526004602052604090205415610b5457506001610b58565b5060005b919050565b600254600160a060020a031681565b600080516020611a3183398151915281565b60606005805480602002602001604051908101604052809291908181526020018280548015610bd657602002820191906000526020600020905b8154600160a060020a03168152600190910190602001808311610bb8575b5050505050905090565b600160a060020a03831660009081526004602052604081205415610c355750600160a060020a03808316600090815260036020908152604080832093871683529281528282208483529052205460ff16610c39565b5060005b9392505050565b6060600080825b60055460ff83161015610cca57600160a060020a03861660009081526003602052604081206005805491929160ff8616908110610c8057fe5b6000918252602080832090910154600160a060020a03168352828101939093526040918201812088825290925290205460ff1615610cbf576001909201915b600190910190610c47565b82604051908082528060200260200182016040528015610cf4578160200160208202803883390190505b50905060009250600091505b60055460ff83161015610dd157600160a060020a03861660009081526003602052604081206005805491929160ff8616908110610d3957fe5b6000918252602080832090910154600160a060020a03168352828101939093526040918201812088825290925290205460ff1615610dc6576005805460ff8416908110610d8257fe5b6000918252602090912001548151600160a060020a0390911690829085908110610da857fe5b600160a060020a039092166020928302909101909101526001909201915b600190910190610d00565b95945050505050565b6005805482908110610de857fe5b600091825260209091200154600160a060020a0316905081565b600080516020611a31833981519152600080600160009054906101000a9004600160a060020a0316600160a060020a0316638da5cb5b6040518163ffffffff1660e060020a028152600401602060405180830381600087803b158015610e6757600080fd5b505af1158015610e7b573d6000803e3d6000fd5b505050506040513d6020811015610e9157600080fd5b505160005433600160a060020a039283168114945091161490508180610eb45750805b80610f4457506001546040805160e060020a638658b8b9028152336004820152306024820152604481018690529051600160a060020a0390921691638658b8b9916064808201926020929091908290030181600087803b158015610f1757600080fd5b505af1158015610f2b573d6000803e3d6000fd5b505050506040513d6020811015610f4157600080fd5b50515b1515610f88576040805160e560020a62461bcd0281526020600482015260176024820152600080516020611a51833981519152604482015290519081900360640190fd5b831515610fdf576040805160e560020a62461bcd02815260206004820152601360248201527f302076616c7565206e6f7420616c6c6f77656400000000000000000000000000604482015290519081900360640190fd5b600160a060020a03851660008181526004602090815260408083208890556005805460018101825593527f036b6384b5eca791c62761152d0c79bb0604c104a5fb6f4eb0703f3154bb3db0909201805473ffffffffffffffffffffffffffffffffffffffff1916841790558151878152429181019190915281517f4affee5c809be0bf6d2aaabc23c591482b6542fdfa026c6d4b96be1fc56e7202929181900390910190a25050505050565b600154600160a060020a031681565b60408051600180825281830190925260609182919060208083019080388339019050509050600080516020611a318339815191528160008151811015156110dd57fe5b60209081029091010152905090565b600054600160a060020a031681565b6060806000808281818181805b60ff87168c11156113cd57600160a060020a038b1663ac90b4228e8e60ff8b1681811061113157fe5b9050602002013560ff166040518263ffffffff1660e060020a028152600401808260ff1660ff168152602001915050600060405180830381600087803b15801561117a57600080fd5b505af115801561118e573d6000803e3d6000fd5b505050506040513d6000823e601f3d908101601f1916820160405260208110156111b757600080fd5b8101908080516401000000008111156111cf57600080fd5b820160208101848111156111e257600080fd5b81518560208202830111640100000000821117156111ff57600080fd5b5090995060009850505050505b85518560ff1610156113c257858560ff1681518110151561122957fe5b90602001906020020151600160a060020a031663c3a07df66040518163ffffffff1660e060020a028152600401600060405180830381600087803b15801561127057600080fd5b505af1158015611284573d6000803e3d6000fd5b505050506040513d6000823e601f3d908101601f1916820160405260208110156112ad57600080fd5b8101908080516401000000008111156112c557600080fd5b820160208101848111156112d857600080fd5b81518560208202830111640100000000821117156112f557600080fd5b5090975060009650505050505b83518360ff1610156113b75760036000878760ff1681518110151561132357fe5b90602001906020020151600160a060020a0316600160a060020a0316815260200190815260200160002060008f600160a060020a0316600160a060020a031681526020019081526020016000206000858560ff1681518110151561138357fe5b602090810290910181015182528101919091526040016000205460ff16156113ac576001909701965b600190920191611302565b60019094019361120c565b600190960195611108565b876040519080825280602002602001820160405280156113f7578160200160208202803883390190505b50915087604051908082528060200260200182016040528015611424578160200160208202803883390190505b50905060009750600096505b60ff87168c111561176857600160a060020a038b1663ac90b4228e8e60ff8b1681811061145957fe5b9050602002013560ff166040518263ffffffff1660e060020a028152600401808260ff1660ff168152602001915050600060405180830381600087803b1580156114a257600080fd5b505af11580156114b6573d6000803e3d6000fd5b505050506040513d6000823e601f3d908101601f1916820160405260208110156114df57600080fd5b8101908080516401000000008111156114f757600080fd5b8201602081018481111561150a57600080fd5b815185602082028301116401000000008211171561152757600080fd5b5090995060009850505050505b85518560ff16101561175d57858560ff1681518110151561155157fe5b90602001906020020151600160a060020a031663c3a07df66040518163ffffffff1660e060020a028152600401600060405180830381600087803b15801561159857600080fd5b505af11580156115ac573d6000803e3d6000fd5b505050506040513d6000823e601f3d908101601f1916820160405260208110156115d557600080fd5b8101908080516401000000008111156115ed57600080fd5b8201602081018481111561160057600080fd5b815185602082028301116401000000008211171561161d57600080fd5b5090975060009650505050505b83518360ff1610156117525760036000878760ff1681518110151561164b57fe5b90602001906020020151600160a060020a0316600160a060020a0316815260200190815260200160002060008f600160a060020a0316600160a060020a031681526020019081526020016000206000858560ff168151811015156116ab57fe5b602090810290910181015182528101919091526040016000205460ff161561174757858560ff168151811015156116de57fe5b9060200190602002015182898151811015156116f657fe5b600160a060020a039092166020928302909101909101528351849060ff851690811061171e57fe5b90602001906020020151818981518110151561173657fe5b602090810290910101526001909701965b60019092019161162a565b600190940193611534565b600190960195611430565b909d909c509a5050505050505050505050565b7f4645455f41444d494e000000000000000000000000000000000000000000000081565b600080516020611a31833981519152600080600160009054906101000a9004600160a060020a0316600160a060020a0316638da5cb5b6040518163ffffffff1660e060020a028152600401602060405180830381600087803b15801561180457600080fd5b505af1158015611818573d6000803e3d6000fd5b505050506040513d602081101561182e57600080fd5b505160005433600160a060020a0392831681149450911614905081806118515750805b806118e157506001546040805160e060020a638658b8b9028152336004820152306024820152604481018690529051600160a060020a0390921691638658b8b9916064808201926020929091908290030181600087803b1580156118b457600080fd5b505af11580156118c8573d6000803e3d6000fd5b505050506040513d60208110156118de57600080fd5b50515b1515611925576040805160e560020a62461bcd0281526020600482015260176024820152600080516020611a51833981519152604482015290519081900360640190fd5b600160a060020a0387166000908152600460205260409020541515611994576040805160e560020a62461bcd02815260206004820152601660248201527f44656c6567617465206973206e6f742065786973747300000000000000000000604482015290519081900360640190fd5b600160a060020a038087166000818152600360209081526040808320948c168084529482528083208a8452825291829020805489151560ff199091168117909155825193845290830189905282820152426060830152517fc83cadfc779fcf3f5f4999f4d282d87c3b19411e46ce8b6319c254358225aa489181900360800190a250505050505050565b6004602052600090815260409020548156004348414e47455f5045524d495353494f4e0000000000000000000000000000005065726d697373696f6e20636865636b206661696c6564000000000000000000a165627a7a72305820355a9e24a7e7ba15b8c3c61e38a62b5fa03e423ed25b97f6ab742e705b7248600029",
  "source": "pragma solidity ^0.4.24;\n\nimport \"./IPermissionManager.sol\";\nimport \"../Module.sol\";\n\n/**\n * @title Permission Manager module for core permissioning functionality\n */\ncontract GeneralPermissionManager is IPermissionManager, Module {\n\n    // Mapping used to hold the permissions on the modules provided to delegate, module add => delegate add => permission uint8 => bool \n    mapping (address => mapping (address => mapping (bytes32 => bool))) public perms;\n    // Mapping hold the delagate details\n    mapping (address => bytes32) public delegateDetails;\n    // Array to track all delegates\n    address[] public allDelegates;\n\n\n    // Permission flag\n    bytes32 public constant CHANGE_PERMISSION = \"CHANGE_PERMISSION\";\n\n    /// Event emitted after any permission get changed for the delegate\n    event ChangePermission(address indexed _delegate, address _module, bytes32 _perm, bool _valid, uint256 _timestamp);\n    /// Use to notify when delegate is added in permission manager contract\n    event AddDelegate(address indexed _delegate, bytes32 _details, uint256 _timestamp);\n\n\n    /// @notice constructor\n    constructor (address _securityToken, address _polyAddress) public\n    Module(_securityToken, _polyAddress)\n    {\n    }\n\n    /**\n     * @notice Init function i.e generalise function to maintain the structure of the module contract\n     * @return bytes4\n     */\n    function getInitFunction() public pure returns (bytes4) {\n        return bytes4(0);\n    }\n\n    /**\n     * @notice Use to check the permission on delegate corresponds to module contract address\n     * @param _delegate Ethereum address of the delegate\n     * @param _module Ethereum contract address of the module\n     * @param _perm Permission flag\n     * @return bool\n     */\n    function checkPermission(address _delegate, address _module, bytes32 _perm) external view returns(bool) {\n        if (delegateDetails[_delegate] != bytes32(0)) {\n            return perms[_module][_delegate][_perm];\n        } else\n            return false;\n    }\n\n    /**\n     * @notice Use to add a delegate\n     * @param _delegate Ethereum address of the delegate\n     * @param _details Details about the delegate i.e `Belongs to financial firm`\n     */\n    function addDelegate(address _delegate, bytes32 _details) external withPerm(CHANGE_PERMISSION) {\n        require(_details != bytes32(0), \"0 value not allowed\");\n        delegateDetails[_delegate] = _details;\n        allDelegates.push(_delegate);\n        emit AddDelegate(_delegate, _details, now);\n    }\n\n    /**\n     * @notice use to check if an address is a delegate or not\n     * @param _potentialDelegate the address of potential delegate\n     * @return bool\n     */\n    function checkDelegate(address _potentialDelegate) external view returns(bool) {\n        require(_potentialDelegate != address(0));\n\n        if (delegateDetails[_potentialDelegate] != bytes32(0)) {\n            return true;\n        } else\n            return false;\n    }\n\n    /**\n     * @notice Use to provide/change the permission to the delegate corresponds to the module contract\n     * @param _delegate Ethereum address of the delegate\n     * @param _module Ethereum contract address of the module\n     * @param _perm Permission flag\n     * @param _valid Bool flag use to switch on/off the permission\n     * @return bool\n     */\n    function changePermission(\n        address _delegate,\n        address _module,\n        bytes32 _perm,\n        bool _valid\n    )\n    public\n    withPerm(CHANGE_PERMISSION)\n    {\n        require(delegateDetails[_delegate] != bytes32(0), \"Delegate is not exists\");\n        perms[_module][_delegate][_perm] = _valid;\n        emit ChangePermission(_delegate, _module, _perm, _valid, now);\n    }\n\n    /**\n     * @notice Use to change one or more permissions for a single delegate at once\n     * @param _delegate Ethereum address of the delegate\n     * @param _modules Multiple module matching the multiperms, needs to be same length\n     * @param _perms Multiple permission flag needs to be changed\n     * @param _valids Bool array consist the flag to switch on/off the permission\n     * @return nothing\n     */\n    function changePermissionMulti(\n        address _delegate,\n        address[] _modules,\n        bytes32[] _perms,\n        bool[] _valids\n    )\n    external\n    withPerm(CHANGE_PERMISSION)\n    {\n        require(_modules.length > 0 && _perms.length > 0, \"0 length is not allowed\");\n        require(_modules.length == _perms.length, \"Array length mismatch\");\n        require(_valids.length == _perms.length, \"Array length mismatch\");\n        for(uint8 i = 0; i < _perms.length; i++) {\n            changePermission(_delegate, _modules[i], _perms[i], _valids[i]);\n        }\n    }\n\n    /**\n     * @notice use to return all delegates with a given permission and module\n     * @param _module Ethereum contract address of the module\n     * @param _perm Permission flag\n     * @return address[]\n     */\n    function getAllDelegatesWithPerm(address _module, bytes32 _perm) external view returns(address[]) {\n        uint256 counter = 0;\n        uint8 i = 0;\n        for (i = 0; i < allDelegates.length; i++) {\n            if (perms[_module][allDelegates[i]][_perm]) {\n                counter++;\n            }\n        }\n        address[] memory allDelegatesWithPerm = new address[](counter);\n        counter = 0;\n        for (i = 0; i < allDelegates.length; i++) {\n            if (perms[_module][allDelegates[i]][_perm]){\n                allDelegatesWithPerm[counter] = allDelegates[i];\n                counter++;\n            }\n        }\n        return allDelegatesWithPerm;\n    }\n\n    /**\n     * @notice use to return all permission of a single or multiple module\n     * @dev possible that function get out of gas is there are lot of modules and perm related to them\n     * @param _delegate Ethereum address of the delegate\n     * @param _tokenAddress Ethereum address of the security token\n     * @param _types uint8[] of types\n     * @return address[] the address array of Modules this delegate has permission\n     * @return bytes32[] the permission array of the corresponding Modules\n     */\n    function getAllModulesAndPermsFromTypes(address _delegate, uint8[] _types, address _tokenAddress) external view returns(address[], bytes32[]) {\n        uint256 counter = 0;\n        // loop through _types and get their modules from securityToken->getModulesByType\n        for (uint8 i = 0; i < _types.length; i++) {\n            address[] memory _currentTypeModules = ISecurityToken(_tokenAddress).getModulesByType(_types[i]);\n            // loop through each modules to get their perms from IModule->getPermissions\n            for (uint8 j = 0; j < _currentTypeModules.length; j++){\n                bytes32[] memory _allModulePerms = IModule(_currentTypeModules[j]).getPermissions();\n                // loop through each perm, if it is true, push results into arrays\n                for (uint8 k = 0; k < _allModulePerms.length; k++) {\n                    if (perms[_currentTypeModules[j]][_delegate][_allModulePerms[k]]) {\n                        counter ++;\n                    }\n                }\n            }\n        }\n\n        address[] memory _allModules = new address[](counter);\n        bytes32[] memory _allPerms = new bytes32[](counter);\n        counter = 0;\n\n        for (i = 0; i < _types.length; i++){\n            _currentTypeModules = ISecurityToken(_tokenAddress).getModulesByType(_types[i]);\n            for (j = 0; j < _currentTypeModules.length; j++) {\n                _allModulePerms = IModule(_currentTypeModules[j]).getPermissions();\n                for (k = 0; k < _allModulePerms.length; k++) {\n                    if (perms[_currentTypeModules[j]][_delegate][_allModulePerms[k]]) {\n                        _allModules[counter]= _currentTypeModules[j];\n                        _allPerms[counter]=_allModulePerms[k];\n                        counter++;\n                    }\n                }\n            }\n        }\n\n        return(_allModules, _allPerms);\n    }\n\n    /**\n     * @notice use to get all delegates\n     * @return address[]\n     */\n    function getAllDelegates() external view returns(address[]) {\n        return allDelegates;\n    }\n    \n    /**\n    * @notice Returns the Permission flag related the `this` contract\n    * @return Array of permission flags\n    */\n    function getPermissions() public view returns(bytes32[]) {\n        bytes32[] memory allPermissions = new bytes32[](1);\n        allPermissions[0] = CHANGE_PERMISSION;\n        return allPermissions;\n    }\n\n}\n",
  "sourcePath": "/Users/jere/Code/polymath-core/contracts/modules/PermissionManager/GeneralPermissionManager.sol",
  "compiler": {
    "name": "solc",
    "version": "0.4.24+commit.e67f0147.Emscripten.clang"
  },
  "schemaVersion": "2.0.1",
  "updatedAt": "2018-10-06T19:15:58.407Z"
}